{
  "_format": "hh-sol-artifact-1",
  "contractName": "Lottery",
  "sourceName": "contracts/Lottery.sol",
  "abi": [
    {
      "inputs": [],
      "stateMutability": "nonpayable",
      "type": "constructor"
    },
    {
      "inputs": [],
      "name": "bet",
      "outputs": [],
      "stateMutability": "payable",
      "type": "function"
    },
    {
      "inputs": [],
      "name": "draw",
      "outputs": [],
      "stateMutability": "nonpayable",
      "type": "function"
    },
    {
      "inputs": [],
      "name": "getBalance",
      "outputs": [
        {
          "internalType": "uint256",
          "name": "",
          "type": "uint256"
        }
      ],
      "stateMutability": "view",
      "type": "function"
    },
    {
      "inputs": [],
      "name": "getPlayers",
      "outputs": [
        {
          "internalType": "address[]",
          "name": "",
          "type": "address[]"
        }
      ],
      "stateMutability": "view",
      "type": "function"
    },
    {
      "inputs": [],
      "name": "getPlayersCount",
      "outputs": [
        {
          "internalType": "uint256",
          "name": "",
          "type": "uint256"
        }
      ],
      "stateMutability": "view",
      "type": "function"
    },
    {
      "inputs": [],
      "name": "issue",
      "outputs": [
        {
          "internalType": "uint256",
          "name": "",
          "type": "uint256"
        }
      ],
      "stateMutability": "view",
      "type": "function"
    },
    {
      "inputs": [],
      "name": "manager",
      "outputs": [
        {
          "internalType": "address payable",
          "name": "",
          "type": "address"
        }
      ],
      "stateMutability": "view",
      "type": "function"
    },
    {
      "inputs": [
        {
          "internalType": "uint256",
          "name": "",
          "type": "uint256"
        }
      ],
      "name": "players",
      "outputs": [
        {
          "internalType": "address",
          "name": "",
          "type": "address"
        }
      ],
      "stateMutability": "view",
      "type": "function"
    },
    {
      "inputs": [],
      "name": "refund",
      "outputs": [],
      "stateMutability": "nonpayable",
      "type": "function"
    },
    {
      "inputs": [],
      "name": "winner",
      "outputs": [
        {
          "internalType": "address payable",
          "name": "",
          "type": "address"
        }
      ],
      "stateMutability": "view",
      "type": "function"
    }
  ],
  "bytecode": "0x608060405234801561001057600080fd5b50336000806101000a81548173ffffffffffffffffffffffffffffffffffffffff021916908373ffffffffffffffffffffffffffffffffffffffff160217905550610be3806100606000396000f3fe6080604052600436106100915760003560e01c80638b5b9ccc116100595780638b5b9ccc14610124578063a76594bf1461014f578063d383f6461461017a578063dfbf53ae146101a5578063f71d96cb146101d057610091565b80630eecae211461009657806311610c25146100ad57806312065fe0146100b7578063481c6a75146100e2578063590e1ae31461010d575b600080fd5b3480156100a257600080fd5b506100ab61020d565b005b6100b5610465565b005b3480156100c357600080fd5b506100cc6104de565b6040516100d99190610798565b60405180910390f35b3480156100ee57600080fd5b506100f76104e6565b60405161010491906107f4565b60405180910390f35b34801561011957600080fd5b5061012261050a565b005b34801561013057600080fd5b5061013961063b565b60405161014691906108df565b60405180910390f35b34801561015b57600080fd5b506101646106c9565b6040516101719190610798565b60405180910390f35b34801561018657600080fd5b5061018f6106d6565b60405161019c9190610798565b60405180910390f35b3480156101b157600080fd5b506101ba6106dc565b6040516101c791906107f4565b60405180910390f35b3480156101dc57600080fd5b506101f760048036038101906101f29190610932565b610702565b604051610204919061096e565b60405180910390f35b60008054906101000a900473ffffffffffffffffffffffffffffffffffffffff1673ffffffffffffffffffffffffffffffffffffffff163373ffffffffffffffffffffffffffffffffffffffff161461026557600080fd5b60004244600180549050604051602001610281939291906109aa565b604051602081830303815290604052905060008180519060200120905060008160001c90506000600180549050826102b99190610a16565b9050600060646060476102cc9190610a76565b6102d69190610ad0565b9050600081476102e69190610b01565b9050600183815481106102fc576102fb610b35565b5b9060005260206000200160009054906101000a900473ffffffffffffffffffffffffffffffffffffffff16600260006101000a81548173ffffffffffffffffffffffffffffffffffffffff021916908373ffffffffffffffffffffffffffffffffffffffff160217905550600260009054906101000a900473ffffffffffffffffffffffffffffffffffffffff1673ffffffffffffffffffffffffffffffffffffffff166108fc839081150290604051600060405180830381858888f193505050501580156103cf573d6000803e3d6000fd5b5060008054906101000a900473ffffffffffffffffffffffffffffffffffffffff1673ffffffffffffffffffffffffffffffffffffffff166108fc829081150290604051600060405180830381858888f19350505050158015610436573d6000803e3d6000fd5b506003600081548092919061044a90610b64565b91905055506001600061045d9190610741565b505050505050565b670de0b6b3a7640000341461047957600080fd5b6001339080600181540180825580915050600190039060005260206000200160009091909190916101000a81548173ffffffffffffffffffffffffffffffffffffffff021916908373ffffffffffffffffffffffffffffffffffffffff160217905550565b600047905090565b60008054906101000a900473ffffffffffffffffffffffffffffffffffffffff1681565b60008054906101000a900473ffffffffffffffffffffffffffffffffffffffff1673ffffffffffffffffffffffffffffffffffffffff163373ffffffffffffffffffffffffffffffffffffffff161461056257600080fd5b60005b600180549050811015610612576001818154811061058657610585610b35565b5b9060005260206000200160009054906101000a900473ffffffffffffffffffffffffffffffffffffffff1673ffffffffffffffffffffffffffffffffffffffff166108fc670de0b6b3a76400009081150290604051600060405180830381858888f193505050501580156105fe573d6000803e3d6000fd5b50808061060a90610b64565b915050610565565b506003600081548092919061062690610b64565b9190505550600160006106399190610741565b565b606060018054806020026020016040519081016040528092919081815260200182805480156106bf57602002820191906000526020600020905b8160009054906101000a900473ffffffffffffffffffffffffffffffffffffffff1673ffffffffffffffffffffffffffffffffffffffff1681526020019060010190808311610675575b5050505050905090565b6000600180549050905090565b60035481565b600260009054906101000a900473ffffffffffffffffffffffffffffffffffffffff1681565b6001818154811061071257600080fd5b906000526020600020016000915054906101000a900473ffffffffffffffffffffffffffffffffffffffff1681565b508054600082559060005260206000209081019061075f9190610762565b50565b5b8082111561077b576000816000905550600101610763565b5090565b6000819050919050565b6107928161077f565b82525050565b60006020820190506107ad6000830184610789565b92915050565b600073ffffffffffffffffffffffffffffffffffffffff82169050919050565b60006107de826107b3565b9050919050565b6107ee816107d3565b82525050565b600060208201905061080960008301846107e5565b92915050565b600081519050919050565b600082825260208201905092915050565b6000819050602082019050919050565b6000610846826107b3565b9050919050565b6108568161083b565b82525050565b6000610868838361084d565b60208301905092915050565b6000602082019050919050565b600061088c8261080f565b610896818561081a565b93506108a18361082b565b8060005b838110156108d25781516108b9888261085c565b97506108c483610874565b9250506001810190506108a5565b5085935050505092915050565b600060208201905081810360008301526108f98184610881565b905092915050565b600080fd5b61090f8161077f565b811461091a57600080fd5b50565b60008135905061092c81610906565b92915050565b60006020828403121561094857610947610901565b5b60006109568482850161091d565b91505092915050565b6109688161083b565b82525050565b6000602082019050610983600083018461095f565b92915050565b6000819050919050565b6109a461099f8261077f565b610989565b82525050565b60006109b68286610993565b6020820191506109c68285610993565b6020820191506109d68284610993565b602082019150819050949350505050565b7f4e487b7100000000000000000000000000000000000000000000000000000000600052601260045260246000fd5b6000610a218261077f565b9150610a2c8361077f565b925082610a3c57610a3b6109e7565b5b828206905092915050565b7f4e487b7100000000000000000000000000000000000000000000000000000000600052601160045260246000fd5b6000610a818261077f565b9150610a8c8361077f565b9250817fffffffffffffffffffffffffffffffffffffffffffffffffffffffffffffffff0483118215151615610ac557610ac4610a47565b5b828202905092915050565b6000610adb8261077f565b9150610ae68361077f565b925082610af657610af56109e7565b5b828204905092915050565b6000610b0c8261077f565b9150610b178361077f565b925082821015610b2a57610b29610a47565b5b828203905092915050565b7f4e487b7100000000000000000000000000000000000000000000000000000000600052603260045260246000fd5b6000610b6f8261077f565b91507fffffffffffffffffffffffffffffffffffffffffffffffffffffffffffffffff821415610ba257610ba1610a47565b5b60018201905091905056fea26469706673582212204baedba3a1c7ca41b8dd6c7c11c25329bfd01bd5cffa83f997b723aa514c27eb64736f6c634300080b0033",
  "linkReferences": {},
  "deployedLinkReferences": {}
}